:020000040800F2
:10000000680C002021030008E5660008E766000888
:10001000EB660008EF660008F366000800000000C9
:10002000000000000000000000000000F76600086B
:10003000F966000800000000FB660008FD66000885
:100040003B0300083B0300083B0300083B03000898
:100050003B0300083B0300083B0300083B03000888
:100060003B0300083B0300083B0300083B03000878
:100070003B0300083B0300083B0300083B03000868
:100080003B0300083B0300083B0300083B03000858
:100090003B0300083B0300083B0300083B03000848
:1000A0003B0300083B0300083B0300083B03000838
:1000B0003B0300082D650008C76100083B030008EA
:1000C0003B0300083B0300083B0300083B03000818
:1000D0003B0300083B0300083B0300088965000858
:1000E0003B0300083B0300083B0300083B030008F8
:1000F0003B0300083B0300083B0300083B030008E8
:100100003B0300083B0300083B0300083B030008D7
:100110003B0300083B0300083B0300083B030008C7
:100120003B0300083B0300083B0300083B030008B7
:10013000DFF80CD008F03CF900480047ED640008F7
:10014000680C00200CB50020019000906B480068FE
:1001500040F480306949086000BF6848006800F4D6
:10016000003000900198401C0190009818B9019847
:10017000B0F5A06FF1D16148006810F4003F02D0E3
:100180000120009001E0002000900098012842D159
:100190005B48006840F01000594908600846006854
:1001A00020F0030008600846006840F00200086084
:1001B00052484068514948600846406848600846CF
:1001C000406840F4806048600846406820F47C1035
:1001D00048600846406840F4E810486008460068F7
:1001E00040F08070086000BF4448006810F0007F55
:1001F000FAD04248406820F0030040494860084671
:10020000406840F00200486000BF3C48406800F091
:100210000C000828F9D10CBD10B5FFF793FF10BDF5
:1002200010B53648006840F00100344908600846BF
:1002300040683449084031494860084600683249FE
:1002400008402E4908600846006820F480200860B5
:100250000846406820F4FE0048604FF41F008860A4
:10026000FFF7DAFF4FF000602849086010BD10B5B5
:10027000002100200022214B5B6803F00C0121B11A
:10028000042906D0082928D107E0214B214C2360FE
:1002900027E01F4B1F4C236023E0184B5B6803F4DF
:1002A0007010164B5B6803F48032022303EB90401E
:1002B00022B9194B4343174C23600DE00F4B5B6889
:1002C00013F4003F04D0144B4343124C236003E06B
:1002D0000F4B43430F4C236003E00D4B0D4C236049
:1002E00000BF00BF054B5B68C3F303130B4CE15C1D
:1002F000084B1B68CB40074C236010BD0010024028
:10030000002002400000FFF8FFFFF6FE08ED00E0CD
:1003100000127A000000002000093D0004000020C7
:100320000648804706480047FEE7FEE7FEE7FEE78F
:10033000FEE7FEE7FEE7FEE7FEE7FEE72102000834
:100340003101000831490143314A1160704770B5ED
:10035000002100230F22C4780CB32D4C246804F430
:10036000E064C4F5E064210AC1F10403CA404478A2
:1003700004FA03F18478144021430901254C0678DE
:10038000A155047804F01F050124AC4005786D11D7
:100390004FF0E02606EB8505C5F8004109E004783A
:1003A00004F01F050124AC401B4D0678761145F87A
:1003B000264070BD194A0A400243154B1B1F1A60A4
:1003C000704739B1124A121D12680243104B1B1DAF
:1003D0001A6006E00E4A121D126882430C4B1B1D68
:1003E0001A607047042808D14FF0E021096941F0F4
:1003F00004014FF0E022116107E04FF0E0210969AC
:1004000021F004014FF0E022116170470000FA056D
:100410000CED00E000E400E080E100E080FFFF1F61
:1004200010B50446FA48844208D10121401501F074
:1004300059F90021601501F055F917E0F54884429B
:1004400008D10121001501F04DF90021201501F01E
:1004500049F90BE0F048844208D10121C80301F0BA
:1004600041F900214FF4004001F03CF910BD30B5D6
:100470000246002000235068E84C20400D790C68AB
:1004800044EA0524204350609068E54C2040D1E9BF
:1004900002542C434D7944EA450420439060D06ACD
:1004A00020F470000C7C641EE4B2234340EA035045
:1004B000D06230BD00210160017141718160C16075
:1004C00001210174704721B1826842F0010282600B
:1004D00003E0826822F001028260704721B18268E5
:1004E00042F48072826003E0826822F4807282604B
:1004F000704710B50023CBB21AB144681C43446066
:1005000002E044689C43446010BD816841F00801EA
:1005100081607047014600208A6812F0080F01D000
:10052000012000E000207047816841F004018160F3
:100530007047014600208A6812F0040F01D00120A4
:1005400000E00020704721B1826842F4A00282607E
:1005500003E0826822F4A002826070470146002016
:100560008A6812F4800F01D0012000E0002070475B
:1005700010B50A4600210023416821F46041531E52
:1005800041EA4331416010BD21B1426842F400624A
:10059000426003E0426822F4006242607047F0B5B6
:1005A00004460D4600200021092D11DDE068A5F16B
:1005B0000A0606EB4607072606FA07F18843A5F167
:1005C0000A0606EB460603FA06F10843E0600CE073
:1005D000206905EB4507072606FA07F1884305EB76
:1005E000450603FA06F108432061072A0FDA606B1B
:1005F000561E06EB86071F2606FA07F18843561E8D
:1006000006EB860605FA06F10843606322E00D2A30
:100610000FDA206BD61F06EB86071F2606FA07F1B6
:100620008843D61F06EB860605FA06F108432063C9
:1006300010E0E06AA2F10D0606EB86071F2606FA17
:1006400007F18843A2F10D0606EB860605FA06F1CE
:100650000843E062F0BD21B1826842F480128260FA
:1006600003E0826822F48012826070470146C86C01
:1006700080B2704766484C300068704721B14268CC
:1006800042F48062426003E0426822F48062426089
:10069000704721B1426842F48052426003E04268F0
:1006A00022F48052426070470A460021816821F49A
:1006B000E04111438160704721B1826842F40042F9
:1006C000826003E0826822F400428260704721B1B8
:1006D000826842F40212826003E0826822F402120D
:1006E00082607047014600208A6812F4001F01D022
:1006F000012000E000207047F0B5044615460020B8
:1007000000220026092911DDE068A1F10A0707EBA4
:10071000470C072707FA0CF29043A1F10A0707EBF1
:10072000470703FA07F21043E0600CE0206901EB91
:10073000410C072707FA0CF2904301EB410703FA3B
:1007400007F210432061A06BC0F30156EF1C06F1C5
:10075000010CA7EB0C0707EB870C1F2707FA0CF21D
:100760009043EF1C06F1010CA7EB0C0707EB870782
:1007700001FA07F21043A063F0BD10B50A4600214C
:100780000023816B21F44011531E41EA0351816320
:1007900010BD08B5002300930090009B0B4400930C
:1007A000009B1A6008BD08B5024600200090009228
:1007B00001F12800009B184400900098006880B266
:1007C00008BD0A4600214168164B1940114341609B
:1007D00070474162826270470A460021416821F0F9
:1007E0001F0111434160704740B109490831096850
:1007F00041F40001064A0832116007E0044908315B
:10080000096821F40001024A0832116070470000B3
:100810000024014000280140003C0140FFFEF0FFA1
:10082000FDF7F1FFFFFD3FFF0246002013680B427A
:1008300001D0012000E000207047CA4302607047E9
:1008400070B502460020002300240B125568CEB27A
:1008500005EA060415681D4202D00CB1012000E033
:10086000002070BD00220A12D343036070470000CD
:1008700001684FF6FE721140016000210160416085
:100880008160C1608C49884208D18B490839496828
:1008900041F00F01884A083A51608AE086491431D4
:1008A000884208D184490839496841F0F001824AF8
:1008B000083A51607DE080492831884208D17E495C
:1008C0000839496841F470617B4A083A516070E028
:1008D00079493C31884208D177490839496841F45F
:1008E0007041754A083A516063E07349503188425B
:1008F00008D171490839496841F470216E4A083AB3
:10090000516056E06C496431884208D16A4908391F
:10091000496841F47001684A083A516049E0664903
:100920007831884208D164490839496841F07061DA
:10093000614A083A51603CE06049884206D1011F93
:10094000096841F00F01021F116032E05B49143168
:10095000884208D15949091F096841F0F001574AF6
:10096000121F116025E055492831884208D15349AA
:10097000091F096841F47061504A121F116018E0A4
:100980004E493C31884208D14C49091F096841F45D
:1009900070414A4A121F11600BE0484950318842A9
:1009A00007D14649091F096841F47021434A121FC3
:1009B0001160704710B50022026847F6F0739A4341
:1009C0000C6A8B6823430C6923434C6923438C696D
:1009D0002343CC6923434C6A23438C6A23431A4341
:1009E0000260CB6843600B6883604B68C36010BDD6
:1009F0000021016041608160C160016141618161EC
:100A0000C161016241628162704721B1026842F0B6
:100A10000102026004E002684FF6FE731A400260B1
:100A200070471AB103680B43036002E003688B430D
:100A300003607047416070470146486880B2704764
:100A400001460020002211F0805F03D01B4B083BC1
:100A50001A6802E0184B083B1A680A4201D00120CC
:100A600000E00020704710F0805F03D01349091F99
:100A7000086002E0104908394860704701460020CC
:100A8000002211F0805F03D00C4B083B1A6802E093
:100A9000094B083B1A680A4201D0012000E00020FF
:100AA000704710F0805F03D00449091F086002E01E
:100AB00001490839486070470800024008040240B4
:100AC00001460020FE4A106800F03800084310601C
:100AD0007047FB49096821F00801F94A1160114685
:100AE0000968014311607047F549096821F0100158
:100AF000F34A116011460968014311607047F148DB
:100B0000EF494860F04848607047EE48EC4948605B
:100B1000ED4848607047EA48006940F08000E849C5
:100B200008617047E648006940F08000E4490861C8
:100B300070470420E249C96811F0010F01D001207B
:100B40000EE0DF49C96811F0040F01D0022007E070
:100B5000DB49C96811F0100F01D0032000E0042028
:100B6000704700B502460423FFF7E3FF034603E0A6
:100B7000FFF7DFFF0346521E012B01D1002AF7D1F8
:100B800002B90523184600BD30B5044604254FF4CC
:100B90003020FFF7E6FF0546042D17D1C84800694D
:100BA00040F00200C649086108464461006940F00F
:100BB000400008614FF43020FFF7D3FF0546C048DE
:100BC000006941F6FD710840BD490861284630BD05
:100BD00010B504244FF43020FFF7C3FF0446042C63
:100BE00016D1B748006940F00400B54908610846CD
:100BF000006940F0400008614FF43020FFF7B1FF7A
:100C00000446AF48006941F6FB710840AC490861F1
:100C1000204610BD00B502460423FFF78AFF0346B5
:100C200003E0FFF786FF0346521E012B01D1002A85
:100C3000F7D102B90523184600BD10B504244FF4BE
:100C40003020FFF7E7FF0446042C16D19C480069CA
:100C500040F004009A4908610846006940F04000ED
:100C600008614FF43020FFF7D5FF0446944800692F
:100C700041F6FB71084092490861204610BD0020F2
:100C80008F49C96911F0020F01D0012000E0002056
:100C9000704730B5A5250424FFF7F1FF00B100250A
:100CA0004FF43020FFF75DFF0446042C3AD185480D
:100CB00083498860844888600846006940F02000C5
:100CC00008610846006940F0400008614FF4302098
:100CD000FFF747FF0446042C1BD17948006941F611
:100CE000DF710840764908610846006940F010004D
:100CF000086176480580E002FFF733FF0446052CC3
:100D000010D06F48006941F6EF7108406C490861E6
:100D100008E0052C06D06A48006941F6EF710840EA
:100D200067490861204630BD78B506460C46042563
:100D300000200090E802FFF714FF0546042D24D19F
:100D40005F48006940F001005D4908613480E802B5
:100D5000FFF707FF0546042D10D1B01C0090200CB2
:100D600000990880E802FFF7FCFE05465448006938
:100D700041F6FE7108405249086106E0504800699A
:100D800041F6FE7108404E490861284678BD70B5AD
:100D900004460D460426F002FFF7E3FE0646042E45
:100DA00011D14748006940F001004549086125809C
:100DB000F002FFF7D6FE06464148006941F6FE7193
:100DC00008403F490861304670BD70B505460E4683
:100DD0000424E002FFF7C5FE0446042C17D139486D
:100DE00037498860384888600846006940F010003C
:100DF00008612E80E002FFF7B4FE0446052C06D001
:100E00002F48006941F6EF7108402D4908612046DE
:100E100070BD2DE9F04304464FF6FF763746B046E5
:100E2000B1460425E443E6B2C4F30727C4F30748F8
:100E30004FEA1469E802FFF794FE0546042D49D1F4
:100E400020481F498860204888600846006940F0B3
:100E500010000861FF2E06D01C4808300680E8020A
:100E6000FFF77FFE0546042D08D1FF2F06D0174857
:100E70000A300780E802FFF774FE0546042D0AD108
:100E8000B8F1FF0F07D011480C30A0F80080E8023D
:100E9000FFF767FE0546042D0AD1B9F1FF0F07D011
:100EA0000A480E30A0F80090E802FFF75AFE054607
:100EB000052D0FD00248006941F6EF71084007E0A8
:100EC0000020024023016745AB89EFCD00F8FF1FEA
:100ED000664908612846BDE8F08330B5054604241C
:100EE0004FF43020FFF73DFE0446042C41D160480A
:100EF0005E4988605F4888600846006940F02000CD
:100F000008610846006940F0400008614FF4302055
:100F1000FFF727FE0446042C22D15448006941F60D
:100F2000DF710840514908610846006940F010002F
:100F300008611DB100205049088002E0A5204E49FB
:100F400008804FF43020FFF70CFE0446052C10D02B
:100F50004648006941F6EF7108404449086108E0DD
:100F6000052C06D04148006941F6DF7108403F4931
:100F70000861204630BDF0B505460E4617460424EC
:100F80003B483A4988603B488860E002FFF7E9FD4A
:100F90000446042C19D13548006940F0100033494B
:100FA000086147F0F800304328433349891C088022
:100FB000E002FFF7D6FD0446052C06D02B48006959
:100FC00041F6EF710840294908612046F0BD2748E5
:100FD000C069800870472548006A7047002023498F
:100FE000096811F0200F01D0012000E000207047B7
:100FF00029B11E4A126902431C4B1A6104E01B4AC4
:1010000012698243194B1A61704701460020012979
:1010100008D1164AD26912F0010F01D0012008E070
:10102000002006E0114AD2680A4201D0012000E007
:10103000002070470D49C860704704200B49C968FB
:1010400011F0010F01D001200EE00849C96811F02C
:10105000040F01D0022007E00449C96811F0100F05
:1010600001D0032000E0042070470000002002406F
:1010700023016745AB89EFCD00F8FF1F10B504468B
:10108000CC48844208D10121042000F02BFB002130
:10109000042000F027FB46E0C748844208D1012124
:1010A000082000F01FFB0021082000F01BFB3AE0A5
:1010B000C248844208D10121102000F013FB002116
:1010C000102000F00FFB2EE0BD48844208D1012122
:1010D000202000F007FB0021202000F003FB22E08D
:1010E000B848844208D10121402000F0FBFA0021D9
:1010F000402000F0F7FA16E0B348844208D10121FD
:10110000802000F0EFFA0021802000F0EBFA0AE0E6
:10111000AE48844207D10121801500F0E3FA002196
:10112000A01500F0DFFA10BD10B50121084600F04F
:10113000D9FA0021012000F0D5FA10BD2DE9F041C7
:10114000024600250026002000230024002791F8F5
:1011500003C00CF00F0591F803C01CF0100F03D072
:1011600091F802C04CEA050591F800C0BCF1000FEF
:1011700031D0146800202BE04FF0010C0CFA00F382
:10118000B1F800C00CEA03069E4220D183004FF064
:101190000F0C0CFA03F7BC4305FA03FC4CEA0404F9
:1011A00091F803C0BCF1280F06D14FF0010C0CFAE6
:1011B00000FCC2F814C00AE091F803C0BCF1480F6B
:1011C00005D14FF0010C0CFA00FCC2F810C0401C15
:1011D0000828D1D31460B1F800C0BCF1FF0F34DD92
:1011E000546800202EE000F1080C4FF0010808FAC6
:1011F0000CF3B1F800C00CEA03069E4221D1830033
:101200004FF00F0C0CFA03F7BC4305FA03FC4CEA51
:10121000040491F803C0BCF1280F05D100F1080CBB
:1012200008FA0CF8C2F8148091F803C0BCF1480F1A
:1012300007D100F1080C4FF0010808FA0CF8C2F8C9
:101240001080401C0828CED35460BDE8F0814FF6D2
:10125000FF710180022181700421C1707047024634
:10126000002093680B4201D0012000E0002070476D
:101270000146886880B2704702460020D3680B425E
:1012800001D0012000E0002070470146C86880B20C
:10129000704701617047C2684A40C260704741614F
:1012A00070470AB1016100E041617047C160704759
:1012B0004FF480320A43826181618261826982696E
:1012C000704702460020424B18684FF68073184062
:1012D00040EA021008433E4B186070473D49C86120
:1012E0007047F0B50A46002300240021002500F0D5
:1012F0000046B6F1004F02D1354EF16901E0344E9F
:101300007168C0F3034583B200F44016B6F5401F80
:1013100008D121F070612E4E766826F070662C4F51
:101320007E6012E000F48016B6F5801F06D1032619
:1013300006FA05F4A14341F0706106E0460D36015E
:1013400003FA06F6B14341F0706122B1460D360151
:1013500003FA06F6314300F00046B6F1004F02D121
:101360001B4EF16101E01A4E7160F0BD30B50022F4
:101370008B071C0F0F2303FA04F2154B08338C1054
:1013800053F824309343124C08348D1044F8253020
:1013900023468C1053F824308C07240F00FA04F4F1
:1013A00023430B4C08348D1044F8253030BD0A49D6
:1013B0000860704700080140000C01400010014027
:1013C0000014014000180140001C014000200140B1
:1013D0000000014000002042DC002042DD4800689F
:1013E00040F00100DB49086008464068DA490840DF
:1013F000D849486008460068D8490840D54908607F
:101400000846006820F4802008600846406820F400
:10141000FE0048604FF41F0088607047CD4909689E
:1014200021F48031CB4A11601146096821F48021F2
:101430001160B0F5803F03D0B0F5802F0ED106E0EB
:10144000C449096841F48031C24A116007E0C149CA
:10145000096841F4A021BF4A116000E000BF00BF4D
:10146000704710B501460022002300204A11012ACE
:1014700002D1B84C236806E0022A02D1B54C236A97
:1014800001E0B44C636A01F01F02012494401C4245
:1014900001D0012000E0002010BD38B500200090F0
:1014A0000024002500BF3120FFF7DBFF0546009830
:1014B000401C00900098B0F5A06F01D0002DF2D034
:1014C0003120FFF7CEFF08B1012400E000242046C0
:1014D00038BD014600209F4A106820F0F80040EA1D
:1014E000C100106070479E490860704702460020A6
:1014F000984B586820F47C1042EA01031843954B3E
:101500005860704796490866704701460020914A26
:10151000506820F003000843506070478D484068D1
:1015200000F00C007047014600208A4A506820F005
:10153000F00008435060704701460020854A50681B
:1015400020F4E06008435060704701460020814A63
:10155000506820F4605040EAC1005060704729B1E3
:101560007C4A527A02437B4B5A7204E0794A527A9F
:101570008243784B5A7270477A4908607047014637
:101580000020744A506820F440400843506070477F
:101590000021754A11706F4A82F82010012802D08C
:1015A000042808D103E001216F4A117004E00521ED
:1015B0006D4A117000E000BF00BF70476B490860C2
:1015C00070476449096A0143624A1162704767497A
:1015D00044390860704730B5002100220024002300
:1015E0005C4D6D6805F00C0121B1042905D0082976
:1015F00023D105E05E4D056022E05D4D05601FE0F2
:10160000544D6D6805F47012524D6D6805F48034C8
:10161000022505EB92421CB9564D554305600BE07F
:101620004C4D6D6815F4003F03D0524D5543056095
:1016300002E04F4D5543056002E04D4D056000BF8F
:1016400000BF444D6D6805F0F00109094A4D6B5C1F
:101650000568DD4045603F4D6D6805F4E061090AAD
:10166000454D6B5C4568DD4085603A4D6D6805F41D
:101670006051C90A404D6B5C4568DD40C560354D21
:101680006D6805F44041890B3C4D6B5CC568B5FB4A
:10169000F3F5056130BD29B12E4A526902432D4B45
:1016A0005A6104E02B4A526982432A4B5A617047BF
:1016B00029B1284A92690243264B9A6104E0254ADF
:1016C00092698243234B9A61704729B1214AD269BA
:1016D0000243204BDA6104E01E4AD26982431D4B6B
:1016E000DA61704729B11B4AD2680243194BDA60AC
:1016F00004E0184AD2688243164BDA60704729B179
:10170000144A12690243134B1A6104E0114A126928
:101710008243104B1A617047144940390860704782
:101720000F49C86470470B49C87170470948406A3F
:1017300040F0807007494862704701460020054A22
:1017400092680A4201D0012000E000207047014960
:1017500088727047001002400000FFF8FFFFF6FE9D
:1017600000004242D800424220100240800442421F
:1017700000127A0000093D0014000020240000201F
:1017800010B50446BE48844208D101218014FFF7F9
:10179000A9FF0021A014FFF7A5FF16E0B948844275
:1017A00008D101210014FFF7AAFF00212014FFF740
:1017B000A6FF0AE0B448844207D10121C013FFF715
:1017C0009EFF0021E013FFF79AFF10BD10B5002225
:1017D000028802F441520B884C8823438C882343AF
:1017E000CC8823430C8923434C8923438C8923438E
:1017F000CC8923431A430280838B4FF2FF7423402A
:1018000083830B8A038210BD2DE9F04F85B0054616
:101810000C464FF0000902274FF000084FF0010B73
:101820000026B246A88B4FF240010840A883022050
:101830002884B5F81C90A068022801D100BF38E0C8
:10184000A08810B94FF0010B01E04FF0020B8D485A
:10185000854200D100E000BF6846FFF7BCFEDDF81E
:1018600000A0E088B0F5007F0AD14FEA1A2000EB13
:1018700080004000A168B0FBF1F0401D86B20BE093
:101880004FEA4B10BAFBF0F000EB80004000A1687B
:10189000B0FBF1F0401D86B20A20B6FBF0F606F070
:1018A0000108A6EB0800C0F34F074FF6FF7000EAEF
:1018B0000828022F01DBFF2F02DD02274FF000086E
:1018C000E08840EA080038432884A088A1890843BA
:1018D000618808432188084340F4006040EA090910
:1018E000A5F81C9005B0BDE8F08F00210180418073
:1018F0008180C180018141818181C1810721018273
:1019000070470021018041808180C1800221816077
:1019100000218181704721B1028842F0400202809B
:1019200004E002884FF6BF731A400280704721B16D
:10193000828B42F48062828304E0828B4FF6FF3315
:101940001A408283704730B5002400230C11012512
:10195000A540ABB21AB185881D43858002E0858819
:101960009D43858030BD1AB183880B43838002E09C
:1019700083888B43838070478181704701468889C3
:101980007047A1F57E42FF3A04D0028842F480728B
:10199000028004E002884FF6FF631A40028070471D
:1019A00021B1828842F00402828004E082884FF6EE
:1019B000FB731A408280704702884FF2FF731A400F
:1019C000028002880A4302807047018841F48051F6
:1019D0000180704721B1028842F40052028004E085
:1019E00002884DF6FF731A400280704702460020BD
:1019F000012901D0108B00E0908A70470146088AC7
:101A00007047B1F5804F04D1028842F480420280D1
:101A100004E002884BF6FF731A40028070470246CA
:101A2000002013890B4201D0012000E00020704704
:101A3000CA4302817047F0B502460020002400230B
:101A4000002501F00F070126BE40B4B20B1101269C
:101A50009E40B3B2968806EA03051689264202D054
:101A60000DB1012000E00020F0BD10B5002201F012
:101A70000F040123A3409AB2D343038110BD000099
:101A80000030014000380040003C004010B50446E2
:101A9000FE48844208D10121C014FFF723FE002133
:101AA000E014FFF71FFEC4E0B4F1804F08D101211C
:101AB0000846FFF724FE00210120FFF720FEB8E0D2
:101AC000F348844208D101210220FFF718FE0021CB
:101AD0000220FFF714FEACE0EE48844208D1012159
:101AE0000420FFF70CFE00210420FFF708FEA0E011
:101AF000E948844208D101210820FFF700FE0021B7
:101B00000820FFF7FCFD94E0E448844208D101215D
:101B10001020FFF7F4FD00211020FFF7F0FD88E012
:101B2000DF48844208D101212020FFF7E8FD002191
:101B30002020FFF7E4FD7CE0DA48844208D101214F
:101B40004014FFF7CFFD00216014FFF7CBFD70E0DC
:101B5000D548844209D10121C804FFF7C3FD002103
:101B60004FF40020FFF7BEFD63E0D048844209D166
:101B700001210805FFF7B6FD00214FF48010FFF7A3
:101B8000B1FD56E0CA48844209D101214805FFF75A
:101B9000A9FD00214FF40010FFF7A4FD49E0C5485E
:101BA000844208D101214020FFF7A9FD00214020F7
:101BB000FFF7A5FD3DE0C048844208D10121802007
:101BC000FFF79DFD00218020FFF799FD31E0BB4824
:101BD000844208D101218015FFF791FD0021A01555
:101BE000FFF78DFD25E0B648844209D101210804A4
:101BF000FFF778FD00214FF48030FFF773FD18E008
:101C0000B048844209D101214804FFF76BFD00214F
:101C10004FF40030FFF766FD0BE0AB48844208D17B
:101C200001218804FFF75EFD00214FF48020FFF7BB
:101C300059FD10BD00220288944B98420ED0994B5A
:101C400098420BD0B0F1804F08D0914B984205D00C
:101C5000904B984202D0904B984204D14FF68F732C
:101C60001A404B881A438D4B984207D08C4B9842B0
:101C700004D04FF6FF431A40CB881A4302808B886A
:101C800083850B880385814B98420BD0854B984206
:101C900008D08B4B984205D08A4B984202D08A4B91
:101CA000984201D10B7A038601238382704770B575
:101CB000002400220023058C4FF6FE763540058473
:101CC000028C8388048B4FF68F752C40B51E2C40F8
:101CD0000D882C43751E2A400D892A434D882A43BE
:101CE0006A4DA8420BD06F4DA84208D0744DA8424F
:101CF00005D0744DA84202D0734DA84213D14FF6BF
:101D0000F7752A404D892A434FF6FB752A408D8886
:101D10002A434FF6FF652B404FF6FF552B408D8928
:101D20002B43CD892B4383800483CD888586028411
:101D300070BD70B5002400220023058C4FF6EF76AD
:101D400035400584028C8388048B48F6FF752C404F
:101D50004FF6FF452C400D884FF6FF7606EA052525
:101D60002C434FF6DF752A400D8906EA05152A43F4
:101D70004D8806EA05152A43444DA84202D0494D34
:101D8000A8421DD14FF67F752A404D894FF6FF7648
:101D900006EA05152A434FF6BF752A408D8806EAE4
:101DA00005152A434FF6FF352B404FF2FF752B40A8
:101DB0008D8906EA85052B43CD8906EA85052B43E7
:101DC00083800483CD880587028470BD70B50024AC
:101DD00000220023058C4FF6FF6635400584028CF7
:101DE0008388848B4FF68F752C404FF6FC752C4002
:101DF0000D882C434FF6FF552A400D894FF6FF768C
:101E000006EA05252A434D8806EA05252A431F4D83
:101E1000A84202D0234DA8421DD14FF2FF752A409F
:101E20004D894FF6FF7606EA05252A434FF6FF3522
:101E30002A408D8806EA05252A434EF6FF752B4079
:101E40004DF6FF752B408D8906EA05152B43CD898C
:101E500006EA05152B4383808483CD888587028419
:101E600070BD70B5002200230024058C4EF6FF766D
:101E700035400584038C8488828B48F6FF752A40A0
:101E80004FF6FF452A400D8820E00000002C01405D
:101E90000004004000080040000C0040001000401A
:101EA0000014004000340140004C0140005001404B
:101EB0000054014000180040001C00400020004079
:101EC0000040014000440140004801404FF6FF76C9
:101ED00006EA05252A434DF6FF752B400D8906EAD3
:101EE00005352B434D8806EA05352B43FA4DA842AC
:101EF00002D0FA4DA84208D14BF6FF752C408D89CF
:101F00004FF6FF7606EA85152C4384808283CD88C0
:101F1000A0F84050038470BD828B4FF2FF331A400B
:101F20008283828B4FF6FF7303EA01231A43828375
:101F30007047F0B50C461546002200210026078C9C
:101F40004EF6FF7C07EA0C070784828B018C4FF664
:101F5000FF7707EA043640F6FF473A404FF6FF772F
:101F600007EA05273A434FF6FF7707EA03373A4374
:101F7000D94FB8420ED0D94FB8420BD0B0F1804FF4
:101F800008D0D74FB84205D0D64FB84202D0D64F6E
:101F9000B84206D14DF6FF77394046F480573943B1
:101FA00005E047F6FF57394044F4805739438283B0
:101FB0000184F0BD828B4FF6F3731A408283828BCB
:101FC0000A4382837047F0B50C4615460022002173
:101FD0000026078C4FF6FF6C07EA0C070784828BFC
:101FE000018C4FF6FF7707EA04264FF60C773A404C
:101FF0004FF6FF7707EA03172F433A43B64FB8422D
:102000000ED0B64FB8420BD0B0F1804F08D0B44FCD
:10201000B84205D0B34FB84202D0B34FB84206D150
:102020004FF6FF57394046F48077394305E04FF2C9
:10203000FF57394044F48077394382830184F0BDEF
:10204000028B4FF2FF331A400283028B4FF6FF736D
:1020500003EA01231A4302837047F0B50C46154684
:10206000002200210026078C4FF6EF7C07EA0C07C0
:102070000784028B018C4FF6FF7707EA041640F6BF
:10208000FF473A404FF6FF7707EA03373A434FF6E8
:10209000FF7707EA05273A438F4FB8420ED08F4F9C
:1020A000B8420BD0B0F1804F08D08D4FB84205D068
:1020B0008C4FB84202D08C4FB84206D14FF6DF7732
:1020C000394046F01007394305E04FF65F77394055
:1020D00044F01007394302830184F0BD028B4FF6B0
:1020E000F3731A400283028B0A4302837047F0B5F0
:1020F0000C46154600220021068C4FF6FE773E4026
:102100000684028B018C4FF60C7632407E1C06EA68
:1021100003162E433243704EB0420ED06F4EB04283
:102120000BD0B0F1804F08D06D4EB04205D06D4E4F
:10213000B04202D06C4EB04206D14FF6FD7631402F
:1021400044F00106314305E04FF6F576314044F0A6
:102150000106314302830184F0BD70B505460C468B
:102160005D4885420ED05D4885420BD0B5F1804F69
:1021700008D05B48854205D05A48854202D05A486B
:10218000854200D100E000BF208850B92389A28891
:1021900061882846FFF7ABFFE1882846FFF79EFFDE
:1021A00025E0208804280AD12389A288618828464E
:1021B000FFF753FFE1882846FFF742FF17E020882A
:1021C00008280AD12389A28861882846FFF7FBFEE8
:1021D000E1882846FFF7EEFE09E02389A28861889E
:1021E0002846FFF7A6FEE1882846FFF795FE70BD5A
:1021F0002DE9F04105460C4600260127608808B904
:10220000022600E00026A088012801D1022700E074
:1022100001272088A0B92389A28861882846FFF772
:1022200066FFE1882846FFF759FF23893A46314681
:102230002846FFF712FFE1882846FFF701FF13E069
:102240002389A28861882846FFF707FFE18828468E
:10225000FFF7F6FE23893A4631462846FFF747FF47
:10226000E1882846FFF73AFFBDE8F0810A884B88ED
:102270001A438B881A43CB881A430B891A434B891C
:102280001A438B891A43A0F8442070474FF6FF7118
:10229000818000210180C18041800172704700214E
:1022A000018041808180C180018141818181C18122
:1022B0007047002101804180012181800021C1807F
:1022C000018170470021018041808180C1800181AE
:1022D0004181818170470000002C014000340140A1
:1022E0000004004000080040000C004021B10288BA
:1022F00042F00102028004E002884FF6FE731A40A9
:102300000280704731B1B0F8442042F40042A0F896
:10231000442005E0B0F84420C2F30E02A0F84420A7
:1023200070471AB183890B43838102E083898B4311
:10233000838170478182704741EA0203A0F84830E8
:1023400070471AB183890B43838102E083898B43F1
:102350008381704701894FF6F872114001817047FF
:102360000A46002101894FF68F73194011430181FC
:10237000704730B504460D4629462046FFF7F0FF6A
:10238000208940F00700208130BD2DE9F04104464E
:102390000D4616461F46602D06D13B4601223146AA
:1023A0002046FFF75AFE05E03B4601223146204613
:1023B000FFF79DFE29462046FFF7D2FF208940F017
:1023C00007002081BDE8F08130B50C46002101896D
:1023D000C9B24FF6FF7505EA032515432543294386
:1023E000018130BD2DE9F04105460E46174698465D
:1023F000002443463A4631462846FFF7E5FF2C893C
:102400004FF6F870044044F007044FF68F70044014
:1024100044F070042C81BDE8F081F0B504460D460F
:1024200016461F463B46324629462046FFF7CCFF5C
:10243000208940F480402081F0BD01858282704770
:102440000A46002101884FF68F731940114301801D
:102450007047F0B50C4615461E46002100220023A9
:102460000189028B038C4FF6F877394021434FF6F0
:10247000FC473A4040F201173A434FF6DD773B40C4
:102480004FF6FF7707EA06172F433B43018102838C
:102490000384F0BD0A460021018B4FF68F7319406B
:1024A0001143018370470A460021018B48F6FF73F0
:1024B00019404FF6FF7303EA022319430183704763
:1024C0000A460021818B4FF68F7319401143818397
:1024D00070470A460021818B48F6FF7319404FF67A
:1024E000FF7303EA022319438183704721B10288F5
:1024F00042F08002028004E002884FF67F731A40A7
:102500000280704721B1828842F00402828004E098
:1025100082884FF6FB731A408280704721B182880F
:1025200042F00802828004E082884FF6F7731A4076
:102530008280704721B1828842F00102828004E0EB
:1025400082884FF6FE731A40828070470A46002147
:10255000018B4FF6F77319401143018370470A4608
:102560000021018B4FF2FF7319404FF6FF7303EA0E
:1025700002231943018370470A460021818B4FF6DD
:10258000F77319401143818370470A460021818BFC
:102590004FF2FF7319404FF6FF7303EA022319430A
:1025A000818370470A460021018B4FF6FB73194067
:1025B0001143018370470A460021018B4FF6FF3318
:1025C00019404FF6FF7303EA022319430183704752
:1025D0000A460021818B4FF6FB731940114381831A
:1025E00070470A460021818B4FF6FF3319404FF6A2
:1025F000FF7303EA02231943818370470A460021CF
:10260000018B4FF67F7319401143018370470A46CF
:102610000021018BC1F30E014FF6FF7303EA022381
:102620001943018370470A460021818B4FF67F735F
:1026300019401143818370470A460021818BC1F301
:102640000E014FF6FF7303EA02231943818370479B
:102650000A460021018C4FF6FD7319401143018495
:1026600070470A460021018C4FF6F7731940114359
:10267000018470470A460021018C4FF6DF73194030
:102680004FF6FF7303EA02131943018470470A46A9
:102690000021018C4FF67F7319404FF6FF7303EA58
:1026A00002131943018470470A460021018C4FF63A
:1026B000FF5319404FF6FF7303EA022319430184C5
:1026C00070470A460021018C4FF2FF7319404FF604
:1026D000FF7303EA02231943018470470A4600216D
:1026E000018C4DF6FF7319404FF6FF7303EA023376
:1026F00019430184704730B5002301248C40A3B2F4
:10270000048C9C430484048C02FA01F5ADB22C4382
:10271000048430BD30B5002304248C40A3B2048C63
:102720009C430484048C02FA01F5ADB22C4304846A
:1027300030BD70B50346002000241846183001252E
:102740008D40ACB21D8CA5431D8409B1082909D167
:1027500000EB6100056825F070050560056815430C
:1027600005600EE00D1FC5F34E052844056825F4ED
:10277000E045056005684FF6FF7606EA0226354318
:10278000056070BD21B1028842F00202028004E0BF
:1027900002884FF6FD731A400280704721B102880B
:1027A00042F00402028004E002884FF6FB731A40F4
:1027B0000280704721B1828842F08002828004E06A
:1027C00082884FF67F731A408280704702884FF6E6
:1027D000F7731A40028002880A4302807047828899
:1027E0004FF68F731A40828082880A438280704736
:1027F00002894FF6F8731A40028102890A43028166
:10280000704702894FF67F731A40028102890A439A
:102810000281704781847047818570478186704747
:102820000187704781877047A0F840107047028881
:102830004FF6FF431A40028002880A430280704725
:102840000146888E70470146088F70470146888F81
:1028500070470146B1F8400070470146888C7047C8
:102860000146088D704702460020138A0B4201D0B2
:10287000012000E000207047CA430282704730B553
:102880000246002000230024158A05EA01039589E9
:1028900005EA010413B10CB1012000E0002030BDB5
:1028A000CA4302827047000010B50446FB488442C8
:1028B00009D101218803FEF715FF00214FF4804064
:1028C000FEF710FF32E0F648844209D101214804A6
:1028D000FEF715FF00214FF40030FEF710FF25E052
:1028E000F048844209D101218804FEF708FF002145
:1028F0004FF48020FEF703FF18E0EB48844209D133
:102900000121C804FEF7FBFE00214FF40020FEF772
:10291000F6FE0BE0E548844208D101210805FEF7E8
:10292000EEFE00214FF48010FEF7E9FE10BD2DE908
:10293000F04786B005460E460024A24600BFA146D9
:102940000027B08900B100BF2F462C8A4CF6FF70DB
:102950000440F08804432C82AC894EF6F310044006
:10296000B08831890843718908430443AC81AC8A3B
:102970004FF6FF400440B0890443AC8201A8FEF743
:102980002AFEC648874202D1DDF810A001E0DDF83A
:102990000CA0A88910F4004F08D00AEBCA0000EB85
:1029A0000A1031684900B0FBF1F807E00AEBCA00F1
:1029B00000EB0A1031688900B0FBF1F86420B8FB25
:1029C000F0F004012009642101FB1089A88910F4AA
:1029D000004F08D0322000EBC900B0FBF1F000F04E
:1029E0000700044308E0322000EB09106421B0FB2B
:1029F000F1F000F00F0004432C8106B0BDE8F08731
:102A00004FF41651016000218180C18001810C21A9
:102A1000418100218181704710B502460020108A53
:102A20004FF2FF0318400B884C8823438C882343C4
:102A3000CC8823431843108210BD002101804180BF
:102A40008180C180704721B1828942F40052828125
:102A500004E082894DF6FF731A4082817047F0B519
:102A600003460024002600250020A1F510676A3FD8
:102A700000D100BF1846C1F3421401F01F06012720
:102A800007FA06F5012C01D10C3004E0022C01D12B
:102A9000103000E014301AB107682F43076002E0DD
:102AA0000768AF430760F0BD1AB1838A0B43838286
:102AB00002E0838A8B4383827047028A4FF6F07369
:102AC0001A400282028A0A430282704782894FF2C8
:102AD000FF731A40828182890A438281704721B143
:102AE000828942F00202828104E082894FF6FD73FE
:102AF0001A4082817047028A4FF6DF731A400282C1
:102B0000028A0A430282704721B1028A42F480425B
:102B1000028204E0028A4BF6FF731A400282704779
:102B2000C1F308028280704701468888C0F308001C
:102B30007047818941F0010181817047028BD2B2D7
:102B40000283028B42EA012202837047028B02F465
:102B50007F420283028B0A430283704721B1828A3B
:102B600042F02002828204E0828A4FF6DF731A402C
:102B70008282704721B1828A42F01002828204E090
:102B8000828A4FF6EF731A408282704721B1828A9F
:102B900042F00802828204E0828A4FF6F7731A40FC
:102BA0008282704721B1828942F40042828103E02F
:102BB0008289C2F30E028281704721B1828A42F477
:102BC0000062828204E0828A4FF2FF731A4082829E
:102BD0007047828A4FF6FB731A408282828A0A43C8
:102BE0008282704721B1828A42F00202828204E02E
:102BF000828A4FF6FD731A40828270470246002097
:102C0000B1F5007F00D100BF13880B4201D0012035
:102C100000E00020704701F40072B2F5007F00D19F
:102C200000BFCA430280704770B5024600240023EB
:102C300000250020A1F510666A3E00D100BFC1F357
:102C4000421501F01F03012606FA03F3012D02D1FC
:102C50009689334006E0022D02D1168A334001E006
:102C6000968A33400C12012606FA04F41688344082
:102C700013B10CB1012000E0002070BD10B500229E
:102C80000023A1F510646A3C00D100BF0A120124A0
:102C90009440A3B2DC43048010BD00000038014022
:102CA0000044004000480040004C004000500040FC
:102CB0002DE9FF5F88B092469946DDF85CB0ABF134
:102CC000010004B208E0601E0AEBC00103C90AEB70
:102CD000C40203C2601E04B2002CF4DCDDE908016A
:102CE000CAE9000100252E46002418E0169800EBE2
:102CF000C40003C8CDE902010AEBC40003C8CDE952
:102D00000001DDE9022305F0A5F82A463346CDE9A6
:102D1000040104F0F8FF05460E46601C04B25C4551
:102D2000E4DB1998401E04B208E0601E09EBC00104
:102D300003C909EBC40203C2601E04B2002CF4DC18
:102D40000027B846012418E0189800EBC40103C915
:102D5000CDE9020109EBC40003C8CDE90001DDE9BA
:102D6000022305F077F83A464346CDE9040104F022
:102D7000CAFF07468846601C04B219988442E3DB08
:102D80003A4643462846314605F05EF8C9E9000157
:102D9000D9E90001CDE90601DDE906010CB0BDE885
:102DA000F09F2DE9FF5F8EB014461D46DDE91CAB98
:102DB000CDE90CABCDE90A4500BFDDE91E01CDE947
:102DC0000801DDE90A23DDE9200104F09CFF8046CB
:102DD000894640464946DDE90C2304F094FF02464B
:102DE0000B46CDE902014046494605F0A5F8CDE97C
:102DF0000401DDE90823DDE90E0105F025F8CDE940
:102E00000001DDE9042305F025F8CDE90201DDE943
:102E1000082304F078FF06460F4600200B49DDE941
:102E2000042305F011F842464B46CDE9020105F0B6
:102E300011F8CDE90601DDE90601CDE92001CDE972
:102E40001E673046394612B0BDE8F09F0000F03FE3
:102E50002DE9F05F04464FF07F594FF07C5120463A
:102E600004F0DBFE824625462E465948A0EB660656
:102E700035462946504604F0D0FE8346294604F0E4
:102E8000CCFE8046494604F0C5FE0746294604F0BC
:102E9000C4FE05462846BDE8F09F30B5034604242D
:102EA00000200EE033F910508D4202DA23F81010A2
:102EB00005E033F91050954201DD23F81020451C40
:102EC000A8B2A042EEDB30BD10B5024604230020BC
:102ED00003E022F81010441CA0B29842F9DB10BDA8
:102EE00070B506460D4614462946304605F078F979
:102EF00001D22E4605E02146304605F067F900D2A2
:102F0000264670BD2DE9F05F82464FF0000B002190
:102F1000504605F05BF901D28AF0004A2D4950462F
:102F200005F05EF901D2DFF8ACA0504605F00AF9D1
:102F30008046294A294B04F08DFF06460022284B83
:102F400004F085FF044605F025F983460021584624
:102F500005F03CF901D24FF0000B5846BDE8F09F58
:102F600010B504460021204605F030F902D284F065
:102F7000004010BD2046FCE72DE9F0410446214603
:102F8000204604F04AFE07464FF0804104F07BFEE5
:102F900006464FF07E5104F03DFE05462846BDE84A
:102FA000F0812DE9F04104462146204604F035FE2B
:102FB0008046214604F031FE07460A4904F063FECC
:102FC0000646214604F026FE05462846BDE8F08167
:102FD000DF59375F9A99193F79E9263108ACFA3FF2
:102FE0000000F03F0000C04008B501210846FEF790
:102FF00052FB01214FF40170FEF75AFB1020ADF88F
:10300000000000208DF8030069463948FEF796F865
:1030100008BD00B591B03748FDF72AFC3648069048
:1030200036480790002008900120099000200A905F
:103030000B904FF480700C9080000D9020200E902B
:1030400000020F900020109006A92A48FDF7B2FC5C
:1030500001212848FDF7D9FC002001908DF80800D7
:1030600001208DF809004FF46020039000200490A7
:1030700001208DF8140001A91F484C38FDF7F7F91D
:103080004FF44040FEF77BFA052301220A211A483B
:103090004C38FDF784FA012117484C38FDF71EFA29
:1030A000012115484C38FDF70EFA13484C38FDF74E
:1030B0002CFA00BF10484C38FDF72CFA0028F9D143
:1030C0000D484C38FDF730FA00BF0B484C38FDF77F
:1030D00030FA0028F9D1012107484C38FDF733FABE
:1030E00011B000BD10B5FFF77FFFFFF792FF10BDD5
:1030F00000080140080002404C2401402800002044
:1031000008B501211020FEF7D3FA01210820FEF7AF
:10311000CFFA3020ADF8000010208DF80300032016
:103120008DF8020069462C48FEF708F80320ADF838
:10313000000010208DF8030003208DF8020069467E
:103140002648FDF7FBFF30212348FEF7A2F80321B4
:103150002248FEF79EF808BD10B5044620480088B6
:10316000012806D0022809D003280CD0042814D145
:103170000EE002211948FEF792F813E002211748E9
:10318000FEF787F80EE002211448FEF788F809E000
:1031900002211248FEF77DF804E002210F48FEF7F5
:1031A00078F800BF00BF0F480088401C0D49088018
:1031B00008460088A04206DD0020088008480088F4
:1031C000401C0749088006480088192802DD0020B5
:1031D0000349088010BD000000100140000C0140B0
:1031E0002A0000202C00002070B50546002405E0D0
:1031F000601CC4B2C82C01DD002070BD02214D4806
:10320000FEF70DFC0028F3D029464A48FEF7B4FB30
:10321000002405E0601CC4B2C82C01DD0020ECE7EE
:1032200001214448FEF7FBFB0028F3D04148FEF79C
:10323000A5FBC0B2E1E700B587B0012141F215005E
:10324000FEF736FAA020ADF8180003208DF81A001A
:1032500018208DF81B0006A93748FDF76FFF4020A6
:10326000ADF8180004208DF81B0006A93248FDF7C0
:1032700065FF1020ADF8180003208DF81A0010200B
:103280008DF81B0006A92C48FDF758FF0420ADF867
:10329000180003208DF81A0010208DF81B0006A9D5
:1032A0002648FDF74BFF0820ADF8180003208DF8E5
:1032B0001A0048208DF81B0006A92048FDF73EFFA4
:1032C0000020ADF804004FF48270ADF80600002035
:1032D000ADF80800ADF80A00ADF80C004FF400702E
:1032E000ADF80E001020ADF810000020ADF812006F
:1032F0000720ADF8140001A90E48FEF767FA012176
:103300000C48FEF708FBFF20FFF76EFF07B000BD7B
:1033100010B50446074800884FF6C77108400549B4
:103320000880084600882043088001210148FEF7F4
:10333000F2FA10BD003001400008014000100140C9
:1033400008B501210820FEF7B3F94020ADF80000D0
:1033500003208DF8020014208DF803006946BA4856
:10336000FDF7ECFE8020ADF8000003208DF8020090
:1033700014208DF803006946B348FDF7DFFE08BD51
:1033800000BF704741F2883000E0401E0028FCD1A9
:10339000704700B58020AC491031086040200860BB
:1033A000FFF7EEFFA8480830006808B9012000E0E8
:1033B000002010F0800F01D0002000BD8020A24925
:1033C00014310860FFF7DCFF9F480830006810F0F8
:1033D000800F01D00020F0E780209B491431086065
:1033E000FFF7CEFF0120E8E700B5402096491431F1
:1033F0000860FFF7C5FF8020934914310860FFF78C
:10340000BFFF4020904910310860FFF7B9FF8020CE
:103410008D4910310860FFF7B3FF00BD00B54020B3
:10342000894914310860FFF7ABFF802086491431C9
:103430000860FFF7A5FF4020834910310860FFF7BF
:103440009FFF4020804914310860FFF799FF00BDBD
:1034500000B540207C4914310860FFF791FF8020BF
:10346000794910310860FFF78BFF40207649103111
:103470000860FFF785FF4020734914310860FFF7AB
:103480007FFF00BD00B540206F4914310860FFF791
:1034900077FF80206C4910310860FFF771FF4020F2
:1034A000694910310860FFF76BFF67480830006812
:1034B00010F0800F07D04020634914310860FFF7F7
:1034C0005FFF002000BD40205F4914310860FFF716
:1034D00057FF0120F6E700B508211BE040225A4BB8
:1034E00014331A60FFF74CFF10F0800F04D08022D5
:1034F000554B10331A6003E08022534B14331A608B
:103500004206100EFFF73CFF40224F4B10331A606B
:10351000FFF736FF0A00A1F10103D9B2DED1402244
:10352000494B14331A6000BD00B5082100208022E9
:10353000454B10331A6015E04206100E4022424BF4
:1035400014331A60FFF71CFF40223F4B10331A6000
:10355000FFF716FF3C4A0832126812F0800F01D0C4
:1035600040F001000A00A1F10103D9B2E4D14022E8
:10357000354B14331A6000BD70B506460C4615462F
:10358000FFF707FF08B9002070BD3046FFF7A3FF23
:10359000FFF778FF18B9FFF727FF0020F4E7204670
:1035A000FFF799FFFFF76EFF2846FFF794FFFFF73D
:1035B00069FFFFF719FFFFF7E5FE0120E4E730B5EB
:1035C00005460C46FFF7E5FE08B9002030BD284649
:1035D000FFF781FFFFF756FF18B9FFF705FF00203F
:1035E000F4E72046FFF777FFFFF74CFFFFF7FCFEFD
:1035F000FFF7C8FE0120E9E770B504460D46FFF766
:10360000C8FE08B9002070BD2046FFF764FFFFF731
:1036100039FF18B9FFF7E8FE0020F4E72846FFF766
:103620005AFFFFF72FFFFFF7B4FE611CC8B2FFF788
:1036300052FFFFF727FFFFF777FF0646FFF708FF68
:10364000FFF7D2FE3046DEE7000C014001B502E094
:103650000098401E009000980028F9D108BD08B5D8
:1036600001214020FEF724F849F28050ADF8000017
:1036700003208DF8020048208DF803006946494870
:10368000FDF75CFD08BD10B54FF400414548FDF75E
:10369000E6FD012814D14FF47A60FFF7D7FF4FF40D
:1036A00000414048FDF7DBFD012879D100BF4FF410
:1036B00000413C48FDF7D3FD0128F8D0022010BDA1
:1036C0004FF480513748FDF7CAFD012814D14FF45B
:1036D0007A60FFF7BBFF4FF480513248FDF7BFFD22
:1036E00001285DD100BF4FF480512E48FDF7B7FD92
:1036F0000128F8D00320E2E74FF480612948FDF764
:10370000AEFD012814D14FF47A60FFF79FFF4FF40C
:1037100080612448FDF7A3FD012841D100BF4FF48B
:1037200080612048FDF79BFD0128F8D00420C6E702
:103730004FF480711B48FDF792FD012814D14FF41E
:103740007A60FFF783FF4FF480711648FDF787FD1D
:10375000012825D100BF4FF480711248FDF77FFD8D
:103760000128F8D00520AAE780210E48FDF777FD53
:10377000012813D14FF47A60FFF768FF80210948D0
:10378000FDF76DFD01280BD100BF80210548FDF735
:1037900066FD0128F9D0062091E701E000208EE7C0
:1037A00000BF8CE70018014070B5044608250121D0
:1037B000FE48FDF76EFD00BF0821FC48FDF76FFDD8
:1037C00000BF16E014F0800F04D00421F748FDF785
:1037D00060FD03E00421F548FDF761FD0821F34891
:1037E000FDF757FD00BF0821F048FDF758FD6006C2
:1037F000040E2800A5F10101CDB2E3D170BD70B572
:10380000044608250121E948FDF749FD0821E7485C
:10381000FDF745FD00BF16E014F0800F04D0042131
:10382000E248FDF736FD03E00421E048FDF737FDEF
:103830000821DE48FDF72DFD00BF0821DB48FDF71C
:103840002EFD6006040E2800A5F10101CDB2E3D1E2
:1038500070BD70B504460D4605F1B001C8B2FFF762
:10386000CEFF102141EA1410FFF7C9FF04F00F004A
:10387000FFF7C5FF70BD70B50646002415E004F1E2
:10388000B001C8B2FFF7BBFF0120FFF7B8FF10205F
:10389000FFF7B5FF002504E03046FFF785FF681C01
:1038A000C5B2802DF8DB601CC4B2082CE7DB70BD0C
:1038B00070B5002415E004F1B001C8B2FFF79FFF16
:1038C0000120FFF79CFF1020FFF799FF002504E07F
:1038D0000020FFF769FF681CC5B2802DF8DB601C73
:1038E000C4B2082CE7DB70BD07E040F2375100BFDF
:1038F0000A00A1F10101FBD1401E0028F5D170475B
:1039000010B504462046FFF77AFF10BD70B5044697
:103910002546E11704EB11710911A4EB0111C8B29E
:10392000FFF76DFF2546E11704EB11710911103106
:10393000C8B2FFF764FF70BD10B504462020FFF742
:103940005EFF2046FFF75BFF10BD70B505460C46D5
:103950002120FFF754FF2846FFF751FF2046FFF7CD
:103960004EFF70BD70B505460C462220FFF747FF9D
:103970002846FFF744FF2046FFF741FF70BD10B512
:10398000044644F04000FFF73AFF10BD10B504466E
:103990008120FFF734FF2046FFF731FF10BD10B53F
:1039A00004468D20FFF72BFF44F01000FFF727FFA0
:1039B00010BD10B5044644F0A000FFF720FF10BD75
:1039C00010B5044644F0A400FFF719FF10BD10B570
:1039D000044644F0A600FFF712FF10BD10B50446E0
:1039E000A820FFF70CFF2046FFF709FF10BD10B518
:1039F000044644F0AE00FFF702FF10BD10B50446C8
:103A000044F0B000FFF7FBFE10BD10B5044644F0D3
:103A1000C000FFF7F4FE10BD10B50446D320FFF739
:103A2000EEFE2046FFF7EBFE10BD10B50446D52094
:103A3000FFF7E5FE2046FFF7E2FE10BD10B5044695
:103A4000D920FFF7DCFE2046FFF7D9FE10BD10B5E8
:103A50000446DA20FFF7D3FE44F00200FFF7CFFE62
:103A600010BD10B50446DB20FFF7C9FE2046FFF766
:103A7000C6FE10BD10B5E320FFF7C1FE10BD08B5AE
:103A800001212020FDF714FE0F20ADF800000320D7
:103A90008DF8020010208DF8030069464348FDF7B9
:103AA0004DFB08214148FDF7F4FB02213F48FDF79B
:103AB000F6FB3220FFF718FF02213C48FDF7E9FB37
:103AC000AE20FFF79CFED520FFF799FE8020FFF780
:103AD00096FEA820FFF793FE3F20FFF790FED3202D
:103AE000FFF78DFE0020FFF78AFE4020FFF787FEDC
:103AF0008D20FFF784FE1420FFF781FE2020FFF7C2
:103B00007EFE0220FFF77BFEA120FFF778FEC82093
:103B1000FFF775FEDA20FFF772FE1220FFF76FFE47
:103B20008120FFF76CFECF20FFF769FED920FFF759
:103B300066FEF120FFF763FEDB20FFF760FE40200A
:103B4000FFF75DFEA420FFF75AFEA620FFF757FE01
:103B5000AF20FFF754FE0020FFF78DFE002108463E
:103B6000FFF777FE08BD70B505460C46214628468E
:103B7000FFF76FFE2046E11704EB5171C910A4EB6B
:103B8000C10201219140CEB2B02101EBE401C8B2E3
:103B9000FFF735FE102141EA1510FFF730FE05F062
:103BA0000F00FFF72CFE304602E000000014014039
:103BB000FFF7FAFD70BD2DE9F04105460E464FF4C2
:103BC000047095FBF0F005B24FF4047096FBF0F032
:103BD00006B201276CE007F1B001C8B2FFF70FFE93
:103BE0000120FFF70CFE1020FFF709FEDDB90024CD
:103BF00004E00020FFF7D8FD601CC4B23E2CF8DBC7
:103C00003E2404E0FF20FFF7CFFD601CC4B2402C2F
:103C1000F8DB402404E00020FFF7C6FD601CC4B2BE
:103C20007F2CF8DB42E0002D16DD002404E00020AC
:103C3000FFF7BAFD601CC4B2C5F13E00A042F6DC3D
:103C4000C5F13E00C4B204E0FF20FFF7ADFD601CEB
:103C5000C4B23E2CF8DB29E0002D27DA002404E072
:103C60000020FFF7A1FD601CC4B23E2CF8DB3E240F
:103C700004E0FF20FFF798FD601CC4B2402CF8DB85
:103C8000402404E0FF20FFF78FFD601CC4B2C5F1A3
:103C90004000A042F6DCC5F14000C4B204E00020C0
:103CA000FFF782FD601CC4B27F2CF8DB781CC7B222
:103CB000032F90DB05276CE007F1B001C8B2FFF7D6
:103CC0009EFD0120FFF79BFD1020FFF798FDDEB958
:103CD000002404E00020FFF767FD601CC4B23E2C06
:103CE000F8DB3E2404E0FF20FFF75EFD601CC4B259
:103CF000402CF8DB402404E00020FFF755FD601C59
:103D0000C4B27F2CF8DB42E0002E16DD002404E074
:103D10000020FFF749FD601CC4B2C6F13E00A0427E
:103D2000F6DCC6F13E00C4B204E0FF20FFF73CFD24
:103D3000601CC4B23E2CF8DB29E0002E27DA0024F8
:103D400004E00020FFF730FD601CC4B23E2CF8DB1D
:103D50003E2404E0FF20FFF727FD601CC4B2402C86
:103D6000F8DB402404E0FF20FFF71EFD601CC4B216
:103D7000C6F14000A042F6DCC6F14000C4B204E047
:103D80000020FFF711FD601CC4B27F2CF8DB781C0B
:103D9000C7B2072F90DBBDE8F0812DE9F04704465C
:103DA000884615464FF00009002600274146204668
:103DB000FFF74FFD1CE0E85D203800F0FF097E2C86
:103DC00004DD002408F1010000F0FF08002609E0EE
:103DD00009EB4901FE4A02EB4101885DFFF7E4FC73
:103DE000701CC6B2062EF3DBA01DC4B2781CC7B28D
:103DF000E85D0028DFD1BDE8F0872DE9F0470646F1
:103E00000F46904600250024A14631E018F809002D
:103E10002038C5B2782E02DD0026781CC7B239469C
:103E20003046FFF716FD002407E004EB0511E94AD0
:103E3000505CFFF7B9FC601CC4B2082CF5DB781CA1
:103E4000C1B23046FFF705FD002408E004EB051180
:103E50000831E04A505CFFF7A7FC601CC4B2082C94
:103E6000F4DB06F10800C6B209F1010000F0FF0919
:103E700018F809000028C9D1BDE8F0872DE9F047FE
:103E800081460F4690460024002601256BE0002461
:103E9000012513E0D048005D18F8061088420BD1C8
:103EA000CD49601C095C701C18F80000814203D1E8
:103EB000C4EBC400450005E0A01CC4B2C648005DC8
:103EC0007F28E7DC00BFB9F1760F03DD4FF0000972
:103ED000781CC7B239464846FFF7BBFC012D1FD0FE
:103EE00039464846FFF7B5FC002406E0BB49485D6B
:103EF000FFF75AFC6D1C601CC4B20E2CF6DB781C5C
:103F0000C1B24846FFF7A5FC002406E0B349485D6E
:103F1000FFF74AFC6D1C601CC4B20E2CF6DB1CE0E3
:103F2000701CC6B239464846FFF793FC002404E0F3
:103F30000020FFF739FC601CC4B2102CF8DB781CA1
:103F4000C1B24846FFF785FC002404E00020FFF7DB
:103F50002BFC601CC4B2102CF8DB09F10E0000F041
:103F6000FF09B01CC6B218F8060000288FD1BDE8C2
:103F7000F087F8B506460F461546002427E0285D71
:103F80007F2814DD285D8DF80000601C285C8DF80A
:103F9000010000208DF802006A4639463046FFF7DE
:103FA0006DFF06F10E00C6B2A01CC4B20FE0285D82
:103FB0008DF8000000208DF801006A463946304631
:103FC000FFF71BFF06F10800C6B2601CC4B2285DF3
:103FD0000028D4D1F8BDF8B505460C461646E006D3
:103FE000040E8DF8006000208DF801006A46294615
:103FF0002046FFF7D2FEF8BDF8B507460E46154637
:104000000024F006060E27E0285D7F2814DD285DD9
:104010008DF80000601C285C8DF8010000208DF8F0
:1040200002006A4639463046FFF728FF06F10E00C7
:10403000C6B2A01CC4B20FE0285D8DF800000020BD
:104040008DF801006A4639463046FFF7D6FE06F184
:104050000800C6B2601CC4B2285D0028D4D1F8BDE7
:104060002DE9FC4107460E461446984600250020DF
:1040700000900190F006060E42F21070B4FBF0F0D2
:104080000A21B0FBF1F201FB12008DF800004FF4A1
:104090007A70B4FBF0F0B0FBF1F201FB12008DF886
:1040A00001006420B4FBF0F0B0FBF1F201FB120060
:1040B0008DF802000A20B4FBF0F0B0FBF1F201FB36
:1040C00012008DF803000A20B4FBF0F100FB114050
:1040D0008DF8040000BF07E01DF805003030C0B2C5
:1040E0000DF80500681CC5B2052DF5DBC8F105000B
:1040F0006946421839463046FFF77FFEBDE8FC812D
:104100002DE9FF5F86B014461D464FF0010A4FF0BF
:1041100000000390049005904FF00109064600BF8F
:104120008346024613462046294604F01FF809D26A
:1041300085F00040CDE900402046019903F0CAFF18
:10414000064604E02046294603F0C4FF06463046F2
:1041500003F07DFF22462B46CDE9000103F077FEF8
:104160000746884600221E4B3846414603F072FE41
:10417000CDE9000103F0CDFF834607E009EB89009C
:104180004FEA40090AF1010000F0FF0A0A2096FBFD
:10419000F0F090FBF9F00028F0D142F2107096FB9D
:1041A000F0F00A2190FBF1F201FB1200C0B28DF891
:1041B0000C004FF47A7096FBF0F090FBF1F201FBEB
:1041C0001200C0B28DF80D00642096FBF0F009E0FB
:1041D0004C8C000837900008748E0008938E0008FD
:1041E0000088C34090FBF1F201FB1200C0B28DF8D1
:1041F0000E000A2096FBF0F090FBF1F201FB12009A
:10420000C0B28DF80F000A2096FBF0F100FB1160A0
:10421000C0B28DF810002E208DF811004FF47A7086
:10422000BBFBF0F00A21B0FBF1F201FB12008DF8AC
:1042300012006420BBFBF0F0B0FBF1F201FB1200B6
:104240008DF813000A20BBFBF0F0B0FBF1F201FB8C
:1042500012008DF814000A20BBFBF0F100FB11B036
:104260008DF8150000211498801D03AA1154894669
:1042700008E003A810F80900303003A901F809008C
:1042800009F10109B9F10A0FF3DB002213462046B8
:10429000294603F06BFF08D20AF1010000F0FF0A83
:1042A0002D20CAF1050103AA50542E208DF81100CB
:1042B00000211498801D03AA1154CAF1050003A916
:1042C0004218DDE90610FFF768FD0AB0BDE8F09F6F
:1042D0002DE9F04F89B08246894617469846DDF8A9
:1042E0004CB04FF0010007904FF000000490059093
:1042F00006904FF00104054600BF06464FEAC9602C
:104300004FEA10693846414603F0E4FE0546284668
:1043100003F0AEFE3A464346CDE9000103F097FDB7
:10432000CDE902010022FE4BDDE9020103F092FD1E
:10433000CDE9000103F0EDFE064606E004EB840043
:1043400044000798401CC0B207900A20B5FBF0F06B
:10435000B0FBF4F00028F1D142F21070B5FBF0F0A0
:104360000A21B0FBF1F201FB12008DF810004FF4AE
:104370007A70B5FBF0F0B0FBF1F201FB12008DF8A2
:1043800011006420B5FBF0F0B0FBF1F201FB12006C
:104390008DF812000A20B5FBF0F0B0FBF1F201FB42
:1043A00012008DF813002E208DF815004FF47A704E
:1043B000B6FBF0F0B0FBF1F201FB12008DF8160035
:1043C0006420B6FBF0F0B0FBF1F201FB12008DF8B7
:1043D00017000A20B6FBF0F0B0FBF1F201FB12006F
:1043E0008DF818000A20B6FBF0F100FB11608DF883
:1043F000190000210BF1060004AA1154002405E065
:1044000004A8005D303004A90855641C0A2CF7DBB1
:104410002E208DF8150000210BF1060004AA11547E
:104420001298C0F1050004A9421851464846FFF70A
:10443000E4FC09B0BDE8F08F2DE9F05F06460F46B9
:1044400090461C46DDF828A04FF0000BE11704EB66
:104450005171C910B4EBC10106D12046E11704EB3C
:104460005171C1F3C70506E02046E11704EB517115
:10447000C910491CCDB23D4614E029463046FFF72D
:10448000E8F9B1460AE059460BF1010B1AF80100B0
:10449000FFF78AF909F1010000F0FF09C145F2DBDD
:1044A000681CC5B2A542E8DDBDE8F09F70B50026E6
:1044B000002411E021461020FFF7CBF9102507E07A
:1044C0003146761C974A505CFFF76EF9681CC5B2FE
:1044D000702DF5DB601CC4B2082CEBDB70BD70B531
:1044E0000026002411E021461C20FFF7B2F91C250C
:1044F00007E03146761C8C4A505CFFF755F9681C82
:10450000C5B2582DF5DB601CC4B2082CEBDB70BDC6
:10451000F8B506460F4614460020009002250DE02F
:104520000A2094FBF0F100FB11403030C0B20DF8CE
:1045300005000A2094FBF0F0C4B26D1E002DEFDAE6
:104540006A4639463046FFF758FCF8BDF8B50646CE
:104550000F4614460020009002250DE00A2094FB2F
:10456000F0F100FB11403030C0B20DF805000A2018
:1045700094FBF0F0C4B26D1E002DEFDA6A463946A6
:104580003046FFF70AFCF8BD2DE9F04105460F461D
:10459000164600BF05EB45014906080E3946FFF7F0
:1045A00058F900240AE006F1100101EB41015F4ACD
:1045B00002EB4101085DFFF7F7F8641C062CF2DB03
:1045C000BDE8F0812DE9F04705460E4614460A2065
:1045D00094FBF0F100FB1140C7B20A2094FBF0F00D
:1045E0000A2190FBF1F201FB120000F0FF086420A9
:1045F00094FBF0F000F0FF09A91CC8B23A4631461E
:10460000FFF7C2FF691CC8B242463146FFF7BCFF44
:104610004A4631462846FFF7B7FFBDE8F0872DE947
:10462000F05F05468B4616463446002C00DA64429D
:104630004FF47A7094FBF0F0C7B24FF47A7094FBA9
:10464000F0F100FB1140642190FBF1F000F0FF0855
:10465000642094FBF0F100FB11400A2190FBF1F083
:1046600000F0FF090A2094FBF0F100FB114000F07C
:10467000FF0A3A4659462846FFF786FF691CC8B22A
:1046800042465946FFF780FFA91CC8B24A46594620
:10469000FFF77AFFE91CC8B252465946FFF774FF8C
:1046A000BDE8F09F2DE9F05F05460E46144642F244
:1046B0001070B4FBF0F0C7B242F21070B4FBF0F12E
:1046C00000FB11404FF47A71B0FBF1F000F0FF08ED
:1046D0000846B4FBF0F100FB11406421B0FBF1F09F
:1046E00000F0FF096420B4FBF0F100FB11400A2147
:1046F000B0FBF1FA0A20B4FBF0F100FB114B3A4693
:1047000031462846FFF740FF691CC8B24246314691
:10471000FFF73AFFA91CC8B24A46314608E000003C
:104720000088C3402E000020279600084C8C00080B
:10473000FFF72AFFE91CC8B252463146FFF724FFB3
:10474000291DC8B25A463146FFF71EFFBDE8F09F4B
:1047500000B587B001210846FCF7B7FF40F6C3104B
:10476000ADF814004720ADF810000020ADF8160099
:10477000ADF8120004A93D48FDF75CFA04A94FF01A
:104780008040FDF757FA6020ADF800000120ADF839
:1047900002000020ADF80600ADF8080069464FF0B1
:1047A0008040FDF784FA0821C806FDF7CFFE694670
:1047B0004FF08040FDF7BDFA0821C806FDF7CFFE97
:1047C00069464FF08040FDF701FB0821C806FDF760
:1047D000D3FE69464FF08040FDF743FB0821C80631
:1047E000FDF7D3FE01218807FDF780FE0121880730
:1047F000FDF77CFD07B000BD08B501210420FCF7E2
:1048000057FF0F20ADF8000018208DF8030003209B
:104810008DF8020069461648FCF790FCFFF798FFF8
:1048200008BD30B540F21454A04200DD204640F2ED
:104830001454A14200DD214640F21454A24200DD8E
:10484000224640F21454A34200DD234600F2EE2437
:104850004FF08045AC8601F2EE242C8702F2EE2464
:10486000AC8703F2EE24034D2C8030BD00340140B0
:1048700000080140400000403EB5044601210220EE
:10488000FCF723FF2848FDF701F9ADF80440472065
:10489000ADF800000020ADF80600ADF80200694652
:1048A0002148FDF7C7F901211F48FDF7E5FF012267
:1048B00011461D48FDF735FD00211B48FDF716FD8B
:1048C0003EBD08B54FF4A060FBF73CFD1D208DF800
:1048D000000002208DF8010000208DF80200012068
:1048E0008DF803006846FBF732FD1E208DF80000AE
:1048F00000208DF801008DF8020001208DF80300E2
:104900006846FBF724FD27208DF8000001208DF874
:10491000010000208DF8020001208DF80300684698
:10492000FBF715FD08BD00000004004000B585B090
:10493000012144F20400FCF7BBFE4FF40070ADF817
:10494000100018208DF8130003208DF8120004A920
:10495000A848FCF7F3FB4FF48060ADF8100004208A
:104960008DF8130004A9A348FCF7E8FB4FF4E130ED
:1049700000900020ADF80400ADF80600ADF8080086
:10498000ADF80C000C20ADF80A0069469A48FDF716
:10499000CEFF01219848FEF756F805B000BD10B5CE
:1049A000044621469448FEF7BBF800BF92480088B1
:1049B00010F0800FFAD0204610BD70B504460D46A9
:1049C000E1B28D48FEF7ACF800BF8B48008810F0CC
:1049D000800FFAD0204670BDF0B503460D4616464E
:1049E000002729460A2E03D0002008702846F0BD73
:1049F00033B9302001F8010B002008702846F6E793
:104A0000002B03DA2D2001F8010B5B4242F21072F9
:104A10000DE093FBF2F404B937B104F1300001F872
:104A2000010B04FB123301270A2092FBF0F2002A4B
:104A3000EFDC002008702846D9E70FB470B586B0C7
:104A400006460CA8019073E00B9800785C281CD1F6
:104A50000B98401C0B9000786E2809D072280FD15B
:104A60000D213046FEF75CF80B98401C0B900BE0D4
:104A70000A213046FEF754F80B98401C0B9003E0D7
:104A80000B98401C0B9000BF4BE00B98007825283A
:104A900040D10B98401C0B900078642818D07328E4
:104AA00033D1019810C801900BE021783046FEF711
:104AB00037F800BF40213046FEF7A0F80028F9D0B3
:104AC000641C20780028F0D10B98401C0B9020E04B
:104AD000019820C801900A2202A92846FFF77CFF0E
:104AE00002AC0BE021783046FEF71AF800BF4021F7
:104AF0003046FEF783F80028F9D0641C207800289F
:104B0000F0D10B98401C0B9003E00B98401C0B90CD
:104B100000BF06E00B9810F8011B0B903046FDF724
:104B2000FFFF00BF40213046FEF768F80028F9D0AB
:104B30000B980078002887D106B070BC5DF814FB94
:104B400000B585B001212020FCF7B2FD01218804C9
:104B5000FCF7BBFD01210846FCF7AAFD012127480F
:104B6000FCF7BFFB4FF48070ADF8100018208DF8F3
:104B7000130003208DF8120004A92148FCF7DEFA87
:104B80004FF40070ADF8100004208DF8130004A954
:104B90001B48FCF7D3FA4FF4E13000900020ADF849
:104BA0000400ADF80600ADF80800ADF80C000C20CC
:104BB000ADF80A0069461348FDF7B9FE012240F23C
:104BC00025511048FDF74BFF01210E48FDF73BFF33
:104BD00005B000BD10B5044621460A48FDF7A0FF08
:104BE00000BF0848008810F0800FFAD0204610BDA2
:104BF00070470000000801400038014030001400F8
:104C000000140140004800404FF0E021096921F004
:104C100004014FF0E0221161C21700EB5272C2F39F
:104C2000C702284B1A701946097801EB4102C2EB02
:104C3000C1114FF6FF7202EAC101234A1180704789
:104C40000146214A12884A434FF0E0235A6100226C
:104C50009A6101221A6100BF4FF0E022106910F042
:104C6000010F02D010F4803FF6D000224FF0E02375
:104C70001A619A6170470146124A12784A434FF00E
:104C8000E0235A6100229A6101221A6100BF4FF0AD
:104C9000E022106910F0010F02D010F4803FF6D02E
:104CA00000224FF0E0231A619A617047002106E06C
:104CB000002200E0521CB2F5FA7FFBD3491C81426E
:104CC000F6D370472E030020300300200346062150
:104CD0000622F8480188F8480288A3B1012B1AD1AE
:104CE00032B9A1F56E40EE3800D170470120FCE7E3
:104CF00039B9A2F56E40EE3801D10120F5E7002068
:104D0000F3E7AB20F1E709B90020EEE70AB901208B
:104D1000EBE7AB20E9E70020E7E770B504260024C5
:104D20000120FFF7D3FF0446AB2C06D1E14800EB8E
:104D3000C420E2490860AB2070BDDE4800EBC4200F
:104D4000DE490860601CDB49891E01EBC0250CE0D0
:104D5000DA4800680068401C02D104263046EBE7C0
:104D6000D6480068001DD5490860D4480068A842AC
:104D7000EED38020E0E710B50424CE48FBF704FF13
:104D80000446042C01D0204610BD0021C948FBF781
:104D9000FEFF0446042C01D02046F5E7C648FBF789
:104DA000F3FE04462046EFE72DE9F04104460F46A6
:104DB00004250026DFF80083A8F101080120FFF791
:104DC00085FF0646AB2E01D1BDE8F081701CB949C4
:104DD000891E01EBC02821E0B84800680068401C2B
:104DE00017D13946B5480068FBF7D1FF0546042DB9
:104DF00001D02846E8E72146B0480068801CFBF750
:104E0000C6FF0546AD480068001DAC49086028464D
:104E1000DAE7AA480068001DA8490860A7480068AA
:104E20004045D9D38020CFE72DE9F04706460F460D
:104E3000002545F255584FF001099E4CA24600202E
:104E4000FFF744FF0546AB2D01D1BDE8F087994837
:104E500000EBC52A99480068841E0BE0B4F8008076
:104E6000B04506D134F8020C00B238804FF000098A
:104E700004E0241F0AF102008442EFD800BF484634
:104E8000E3E72DE9F0474FF0060A06260025002744
:104E9000A8464FF0FF398748B0F800A0864806883A
:104EA0005FEA0A0075D0A0F56E40EE382AD0A0F572
:104EB000885011386ED146B97E48FBF765FE04462E
:104EC000042C1ED02046BDE8F087A6F56E40EE38D3
:104ED00010D17848FBF758FE0446042C01D0204638
:104EE000F1E700217448FBF752FF0446042C08D078
:104EF0002046E8E7FFF73FFF0446042C01D0204698
:104F0000E1E7B0E086BB002523E06A48C0886C4931
:104F100031F81510884201D10FFA85F94D4516D0A8
:104F2000674931F815006749FFF77EFF8046B8F101
:104F3000010F0CD0634A128891B2614A32F8150011
:104F4000FFF732FF0746042F01D03846BBE7681C45
:104F500085B20F2DD9DB00215648FBF718FF044618
:104F6000042C02D02046AEE707E05348FBF70CFEC6
:104F70000446042C1FD02046A5E7A6F57F40FF3845
:104F800012D14D48FBF700FE0446042C03D0204606
:104F900099E711E05FE000214648FBF7F8FE044680
:104FA000042C08D020468EE7FFF7E5FE0446042CCB
:104FB00001D0204687E756E036B9FFF7DCFE04460D
:104FC000042C47D020467EE7A6F57F40FF3807D166
:104FD0003948FBF7D9FD0446042C3BD0204672E744
:104FE000002524E03448801D0088354931F815102B
:104FF000884201D10FFA85F94D4516D0304931F874
:1050000015003049FFF710FF8046B8F1010F0CD0B2
:105010002C4A128891B22A4A32F81500FFF7C4FED2
:105020000746042F01D038464DE7681C85B20F2D86
:10503000D8DB00212048FBF7AAFE0446042C01D04F
:10504000204640E71B48FBF79FFD0446042C01D097
:10505000204638E707E0FFF78EFE0446042C01D017
:10506000204630E700BF00BF04202CE710B5FFF753
:1050700008FF0446FFF751FE204610BD2DE9F84F0A
:10508000074689460425DFF840A00A4800904FF003
:105090000008002400264FF0000B0020FFF716FE4A
:1050A0008046B8F1010F11D1DFF808A00248009046
:1050B00017E0000000000108000801083803002084
:1050C0007A04002034030020FF030108B8F1000F28
:1050D00004D1DFF8C8A03248009002E0AB20BDE860
:1050E000F88F4EF6EE615046FBF751FE0546042D53
:1050F00001D02846F3E7FFF710FE49463846FFF790
:1051000053FE0646042E01D03046E8E700241DE099
:10511000244830F81400B84216D0224931F814005F
:105120002149FFF781FE8346BBF1010F0CD01E4AD7
:10513000128891B21B4A32F81400FFF735FE06467A
:10514000042E01D03046CAE7601C84B20F2CDFDB8E
:105150000098FBF719FD0546042D01D02846BEE74F
:1051600000215046FBF713FE0546042D01D02846CA
:10517000B5E72846B3E770B506460C460025A1B250
:105180003046FFF711FE0546802D04D1A1B230460E
:10519000FFF774FF0546284670BD000000080108AF
:1051A000000001087A0400203403002010B5FEF747
:1051B000F0F8EE20FEF78FF9FEF764F91E20FEF7F7
:1051C0008AF9FEF75FF9FEF70FF910BD70B5FFF72A
:1051D000EDFF1420FFF734FD012432E0FEF7D9F88B
:1051E000EE20FEF778F9FEF74DF9A02101EB44011E
:1051F000C8B2FEF770F9FEF745F9FEF7F5F80120A1
:10520000FFF71EFDFEF7C5F8EF20FEF764F9FEF785
:1052100039F9FEF789F90546FEF700F9FEF784F93A
:105220000646FEF715F9FEF7DFF8FEF7A9F846EA9D
:105230000520E44941F824000A20FFF701FD601C25
:10524000C4B2062CCADDDF48006808B9012070BD71
:105250000020FCE710B50446FEF79BF8EE20FEF7B1
:105260003AF9FEF70FF92046FEF735F9FEF70AF98D
:10527000FEF7BAF810BD2DE9F0410025FEF789F8D8
:10528000EE20FEF728F9FEF7FDF80020FEF723F9DF
:10529000FEF7F8F8FEF7A8F8FEF77BF8EF20FEF728
:1052A0001AF9FEF7EFF8FEF73FF90646FEF7B6F8F3
:1052B000FEF73AF90446FEF7B1F8FEF735F907466E
:1052C000FEF7C6F8FEF790F8C6EB064000EB0420A8
:1052D000C5192846BDE8F0812DE9F04700240025D6
:1052E000DFF8E482FFF7C7FFB849B94A127841F8FE
:1052F0002200B7480078401CB5490870084600787D
:105300000A2801D100200870002016E0AF4951F8AA
:105310002010A94203D9AD4951F8205007E0AB490C
:1053200051F82010414502D2A84951F82080A749E0
:1053300051F820100C44411CC8B20A28E6DB601B5F
:10534000A0EB0800C008A34908609E4840690968AE
:10535000A1EB00200021A04A03C29A4880690023E3
:105360009D49D1E90021A0FB026903FB029201FBE8
:1053700000214FF40002304602F0C6FB4FF4FA63FE
:10538000C01841F10001954A03C2BDE8F0872DE93C
:10539000F04F87B000240025DFF84482FFF76BFF51
:1053A00090490860FDF7ECFF8648006900238A4AAF
:1053B00006CAA0FB016B03FB01B100FB02118022B6
:1053C000304602F0A1FB7F4A1289120410EB020959
:1053D00041F10001484602F058FE834A03C2794871
:1053E000C06800237C4A06CAA0FB016903FB019147
:1053F00000FB02114FF48072304602F085FB714AC7
:105400005268D203801841F10001784A03C2734800
:10541000D0E900204FF4FA63D21A70F100004BD2A9
:105420006E48D0E90010A1FB012700FB017701FBCA
:105430000071104602F0FDFD6D49086008460068E5
:1054400002F080FE814600226A4B02F003FD064610
:1054500002F05FFE684908606548006802F072FE6D
:1054600006460022654B02F0F5FC814602F051FE33
:10547000634908605948D0E9003062490968591AFF
:1054800060F10000554AC2E900105B48006802F074
:10549000EFFD064654480CC8304602F0D8FC524A8C
:1054A00003C25248D0E9003055490968591A60F1E1
:1054B00000004E4AC2E900104A48006800224B49E9
:1054C000D1E90031A0FB036B02FB03B201FB002119
:1054D0004FF400120023304602F016FBCDE9000124
:1054E00002F0D3FD814640480CC8484602F0ACFCAF
:1054F0000022454BCDE9020102F01EFDCDE9040179
:1055000002F007FE414908604149424A127841F8D9
:10551000220040480078401C3E4908700846007848
:10552000142801D100200870002016E0384951F8F5
:105530002010A94203D9364951F8205007E03449D8
:1055400051F82010414502D2314951F820803049AC
:1055500051F820100C44411CC8B21428E6DB601B33
:10556000A0EB08001221B0FBF1F02B49086007B056
:10557000BDE8F08F10B529480078012802D0022834
:1055800017D10BE02648007808B1FFF700FF58203C
:10559000FFF760FE02202149087011E0FFF79CFE32
:1055A0004820FFF757FE01201D4908701B4908706D
:1055B00006E001201949087000201949087000BF51
:1055C00000BF10BDB804002000C2EB0B2405002072
:1055D000400300207C0300205803002060030020CB
:1055E000400D0300780300204803002070030020D2
:1055F0005003002000000440940300200000F43F0A
:10560000980300208C0300200000E0408803002065
:10561000D404002041030020800300204203002026
:105620004303002010B500226B21D020FDF7A4FF1A
:10563000C4B207221921D020FDF79EFF2044C4B236
:1056400003221A21D020FDF797FF2044C4B2102274
:105650001B21D020FDF790FF2044C4B209221C2159
:10566000D020FDF789FF2044C4B2204610BD10B5FC
:105670003B21D020FDF7C0FFFE4908703C21D0201F
:10568000FDF7BAFFFB4948703D21D020FDF7B4FF7C
:10569000F84988703E21D020FDF7AEFFF549C8706B
:1056A0003F21D020FDF7A8FFF24908714021D0200A
:1056B000FDF7A2FFEF4948714321D020FDF79CFF81
:1056C000EC4908724421D020FDF796FFE949487261
:1056D0004521D020FDF790FFE64988724621D02071
:1056E000FDF78AFFE349C8724721D020FDF784FF08
:1056F000E04908734821D020FDF77EFFDD4948735B
:1057000010BD2DE9F05FFFF7B2FFDA484078D949C4
:10571000097840EA0120D849498A401A00B2D6499E
:105720000880D448C078D349897840EA0121D2481A
:10573000808A081A00B2D0494880CE484079CD49C5
:10574000097940EA012000B2CB498880C948407AF3
:10575000C849097A40EA012000B2C7498884C5488F
:10576000C07AC449897A40EA012001B2C248C184A2
:10577000C048407BBF49097B40EA012001B2BE48D6
:1057800001850146B1F9360002F061FC0646BB4ACC
:10579000BB4B02F05FFB80468946B749B1F9240054
:1057A00002F055FC0646B54AB54B02F053FB824663
:1057B00042464B4602F048FB044602F0EBFCAE4981
:1057C000C863B1F9380002F042FC0646AB4AAC4B64
:1057D00002F040FB04460D46A749B1F9260002F04D
:1057E00036FC0646A54AA64B02F034FB804622460C
:1057F0002B4602F029FB824602F0CCFC01469E4873
:1058000001640146B1F93A0002F021FC06469B4AC8
:105810009B4B02F01FFB04460D469749B1F9280047
:1058200002F015FC0646954A954B02F013FB8046A4
:1058300022462B4602F008FB824602F0ABFC0146F2
:105840008D4841648F480078002879D18E48B0F99E
:105850000400B0F5966F73DC8B48B0F90400B0F526
:10586000617F6DDB8848B0F90000B0F5966F6ADCA7
:105870008548B0F9020040F2D661884263DB01211D
:105880008248FBF70CFD8248007890B900207A49E5
:105890004882002178488182C18200207D490860C9
:1058A0007D4908607D490860012079490870BDE89C
:1058B000F09F7148B0F900007649096808447549BD
:1058C00008606D48B0F902007349096808447249DC
:1058D00008606948B0F904007049096808446F49D4
:1058E00008606B480078C82824D16A480068684975
:1058F000097890FBF1F000B25F4948826648006881
:105900006349097890FBF1F001B25B4881826348FA
:1059100000685F49097890FBF1F001B25648C182F6
:1059200000205B49087001205649087001F095FC81
:10593000BDE705E056480078401C5549087002E074
:1059400001205049087000BFB1E72DE9F0414FF444
:10595000FA670024002500260021474841858185FB
:10596000C18527E0FFF783FE4248407A4149097A22
:1059700040EA012000B2404988843E48C07A3D494F
:10598000897A40EA012001B23B48C1843948407B12
:105990003849097B40EA012001B237480185B0F956
:1059A000240004443448B0F9260005443248B0F9D4
:1059B000280006443800A7F10107D3D14FF4FA605C
:1059C00094FBF0F001B22C48C1864FF4FA6095FBCD
:1059D000F0F001B2284801874FF4FA6096FBF0F02E
:1059E00001B225484187BDE8F0812DE9F04F87B02D
:1059F0008820FEF7D4FFAF20FEF7D1FF1C20FEF772
:105A0000CEFF1D48B0F900B0CBF307252846FEF7BE
:105A1000C6FF6019C4B20BF0FF052846FEF7BFFFB2
:105A2000154880782044C4B21D4948681D4902F0D9
:105A3000F4F8009002F035FB00B206900698C0F32F
:105A400007252846FEF7ABFF6019C4B20698C5B219
:105A50002846FEF7A4FF6019C4B20026350A28467E
:105A6000FEF79DFF6019C4B235462846FEF797FF42
:105A7000601919E0940500204C0500201BE20E8AF5
:105A80009C74413F9C030020FE050020000C014057
:105A9000AC030020A0030020A4030020A8030020E2
:105AA000300700200000DC42C4B200273D0A28462F
:105AB000FEF775FF6019C4B23D462846FEF76FFF3A
:105AC0006019C4B2B0464FEA18252846FEF767FFB2
:105AD0006019C4B245462846FEF761FF6019C4B29A
